:10000000B8C00000D3C00000D1C00000CFC00000C5
:10001000CDC00000CBC00000C9C00000C7C00000B8
:10002000C5C00000C3C0000063C50000BFC0000021
:10003000BDC00000BBC00000B9C00000B7C00000D8
:10004000B5C00000B3C00000B1C00000AFC00000E8
:10005000ADC00000ABC00000A9C00000A7C00000F8
:10006000A5C00000A3C00000A1C000009FC0000008
:100070009DC000009BC0000099C0000097C0000018
:1000800095C0000093C0000091C000008FC0000028
:100090008DC000008BC00000240350004F004B00B7
:1000A0004B0045004E00200043004F004E0054001E
:1000B00052004F004C004C004500520000001C0351
:1000C00048004F0052004900200043004F002E001E
:1000D0002C004C00540044002E00000004030904CE
:1000E0000902290001010080FA090400000203004E
:1000F00000000921110100012256000705020340FA
:100100000005070581034000051201000200000000
:10011000400D0F920000010102000105010905A137
:1001200001150025013500450175019510050919D6
:10013000012910810205012507463B01750495013F
:1001400065140939814265009501810126FF004649
:10015000FF0009300931093209357508950481021B
:100160000600FF0920950181020A212695089102C7
:10017000C00011241FBECFEFD0E2DEBFCDBF13E021
:10018000A0E0B1E0E4E7FFE000E00BBF02C00790B1
:100190000D92A43CB107D9F723E0A4ECB3E001C071
:1001A0001D92AA3EB207E1F720D2E2C629CF84B75A
:1001B000877F84BF0FB6F894A8958091600088610E
:1001C00080936000109260000FBE90E080E80FB650
:1001D000F89480936100909361000FBE6EC40895FF
:1001E000089542E360EC82E09DD342E361EC81E05C
:1001F00099C308951F93CF93DF93DC018091C803C7
:100200009091C90316E0189FE001199FD00D1124A9
:10021000C60FD71F2D913C91119788819981822B10
:10022000932B11969C938E932091C8033091C90310
:10023000129FF001139FF00D1124E60FF71F82812A
:1002400013968C931397838114968C938481958154
:100250009093D3038093D203C90101968417950725
:100260002CF49093C9038093C8030DC01092C90366
:100270001092C8038091CA039091CB03019690938A
:10028000CB038093CA03DF91CF911F9108951F93F1
:10029000CF93DF93EC018091C8039091C90316E0DE
:1002A000189FF001199FF00D1124E60FF71FA88188
:1002B000B981808191818A2B9B2B99838883E091DE
:1002C000C803F091C9031E9FD0011F9FB00D1124D8
:1002D000A60FB71F12968C9112978B8313968C9151
:1002E00013978C8314968D919C9115979093D303BB
:1002F0008093D203CF010196841795072CF4909335
:10030000C9038093C8031EC01092C9031092C8038A
:100310008091C6039091C7030196821793072CF42E
:100320009093C7038093C6030DC01092C703109229
:10033000C6038091CA039091CB0301969093CB039F
:100340008093CA03DF91CF911F910895DF92EF92BE
:10035000FF920F931F93CF93DF93EC018091C8031B
:100360009091C903E6E0DE2ED89EF001D99EF00DF3
:100370001124E60FF71FA881B981808191818A2B12
:100380009B2B99838883E091C803F091C903DE9E7B
:10039000D001DF9EB00D1124A60FB71F12968C91CD
:1003A00012978B8313968C9113978C8314968D914F
:1003B0009C9115979093D3038093D203CF0101961C
:1003C0009093C9038093C8038017910799F4809193
:1003D000C6039091C70361E0E61AF1088E159F05E8
:1003E0004CF43093C9032093C80301969093C7033C
:1003F0008093C6038091C8039091C9038417950721
:100400008CF01092C9031092C8031092C703109287
:10041000C6038091CA039091CB0301969093CB03BE
:100420008093CA03DF91CF911F910F91FF90EF90BE
:10043000DF900895EF92FF920F931F93CF93DF9376
:10044000DC0198E0FD01892F11928A95E9F780E897
:1004500013968C93139714968C93149715968C93EC
:10046000159716968C93169712969C9312978091D7
:10047000D2039091D303181619068CF488E0E5EDA9
:10048000F3E001900D928A95E1F78091D20390916B
:10049000D30301979093D3038093D20357C08091E5
:1004A000CA039091CB03099734F081E090E09093D8
:1004B000CB038093CA03ED018091CA039091CB03D3
:1004C000009729F448E050E064E973E007C0813008
:1004D000910539F44FE050E066E572E0CE018ADE26
:1004E0002DC09C012250310926303105E8F480FDF1
:1004F0000CC09AE5E92EF12C05E010E023E030E095
:1005000045E050E068E372E00CC084EAE82EFF2486
:10051000F3940AE010E028E030E04AE050E06CEFAD
:1005200071E0CE0113DF0AC0089741F420E530E006
:1005300042E050E060EF71E0CD01A9DE88E0FE010D
:10054000A5EDB3E001900D928A95E1F7DF91CF918F
:100550001F910F91FF90EF900895CF93DF93CDB748
:10056000DEB728970FB6F894DEBF0FBECDBF8091DF
:10057000E103843089F582E08093E9008091E8000E
:1005800082FF12C08091E80085FF09C040E050E082
:1005900067E070E0CE010196BAD08111F7CF80916B
:1005A000E8008B778093E80081E08093E9008091F8
:1005B000E80080FF11C0CE0101963CDF40E050E032
:1005C00068E070E0CE01019658D08111F7CF80919C
:1005D000E8008E778093E80028960FB6F894DEBF87
:1005E0000FBECDBFDF91CF910895E1DD7894B5DFE7
:1005F000A5D4FDCF292F332723303105E1F05CF45A
:100600002130310599F02230310579F589E290E009
:1006100020EE30E02EC02132310511F122323105B9
:1006200021F586E590E02BE131E023C082E190E006
:1006300029E031E01EC099278130910541F08230D8
:10064000910541F0892B89F4ECEDF0E005C0EEEB6B
:10065000F0E002C0E8E9F0E0849190E09F0109C079
:1006600089E090E022EF30E004C080E090E020E0FC
:1006700030E0FA01318320830895CF92DF92EF9228
:10068000FF920F931F93CF93DF93EC018B017A01BD
:100690009DD1811133C0E114F10439F0F70180815B
:1006A0009181081B190BC80FD91FC12CD12C011522
:1006B000110519F18091E80085FD16C08091E800D0
:1006C0008E778093E8003AD4E114F10449F0F70101
:1006D00080819181C80ED91ED182C08285E00EC072
:1006E00075D1882321F30AC089918093F1000150CC
:1006F0001109FFEFCF1ADF0ADACF80E0DF91CF9147
:100700001F910F91FF90EF90DF90CF900895CF92BF
:10071000DF92EF92FF920F931F93CF93DF93EC0141
:100720008B017A0153D1811133C0E114F10439F006
:10073000F70180819181081B190BC80FD91FC12CAB
:10074000D12C0115110519F18091E80085FD16C025
:100750008091E8008B778093E800F0D3E114F104F6
:1007600049F0F70180819181C80ED91ED182C082E3
:1007700085E00EC02BD1882321F30AC08091F100BF
:10078000899301501109FFEFCF1ADF0ADACF80E019
:10079000DF91CF911F910F91FF90EF90DF90CF905D
:1007A00008952091E8033091E9032617370748F0B0
:1007B0006115710539F42091E8002E772093E80047
:1007C00001C0B90140E06115710599F12091E10383
:1007D000222309F441C0253009F440C02091E800EB
:1007E00023FD3EC02091E80022FD30C02091E800AA
:1007F00020FFE9CF2091F2003091F300FC01CF01FE
:100800006115710559F02034310540F481918093D0
:10081000F100615071092F5F3F4FF1CF41E020346B
:10082000310509F040E02091E8002E772093E800A0
:10083000CACF4111CBCF0AC08091E103882361F078
:10084000853061F08091E80083FD0AC08091E80066
:1008500082FFF2CF80E0089582E0089583E008955A
:1008600081E008952091E8033091E90326173707C6
:1008700048F06115710539F42091E8002E77209336
:10088000E80001C0B901FC0120E06115710589F1A2
:100890008091E103882309F43FC0853009F43EC00C
:1008A0008091E80083FD3CC08091E80082FD2EC06D
:1008B0008091E80080FFE9CF8091F2009091F300F1
:1008C0006115710559F08034910540F4249120930D
:1008D000F1003196615071090196F2CF21E0803428
:1008E000910509F020E08091E8008E778093E80080
:1008F000CCCF2111CDCF0AC08091E103882361F0D4
:10090000853061F08091E80083FD0AC08091E800A5
:1009100082FFF2CF80E0089582E0089583E0089599
:1009200081E00895982F973058F59093E900981733
:1009300039F07091EC002091ED005091F00003C06F
:10094000242F762F50E021FF19C03091EB003E7F1D
:100950003093EB003091ED003D7F3093ED0030910E
:10096000EB0031603093EB007093EC002093ED00CE
:100970005093F0002091EE0027FF07C09F5FD3CF78
:100980008F708093E90081E0089580E00895809160
:10099000E20387FF11C08091E80082FD05C08091CD
:1009A000E1038111F8CF11C08091E8008B770BC073
:1009B0008091E103882349F08091E80080FFF8CF1F
:1009C0008091E8008E778093E80008952091E400FC
:1009D0003091E50095E64091EC00842F817040FF56
:1009E00022C08091E80080FD1CC08091E103882333
:1009F00091F0853091F08091EB0085FD10C0409121
:100A0000E4005091E5004217530729F39A019150F1
:100A100011F784E0089582E0089583E0089581E06D
:100A2000089580E008954091E80042FFDECF0895E8
:100A30000F931F93CF93DF934ED055D0C8EDD0E0E6
:100A400088818F77888388818068888388818F7D7B
:100A50008883E7EDF0E080818068808319BC109284
:100A6000E1031092DD031092DF031092DE0300EE2B
:100A700010E0F80180818B7F80838881816088838A
:100A800042E360E080E04EDFE1EEF0E080818E7FC7
:100A90008083E2EEF0E080818160808380818860E5
:100AA0008083F80180818E7F808388818061888344
:100AB000DF91CF911F910F910895E8EDF0E08081D3
:100AC0008F7E8083E7EDF0E080818160808381E02C
:100AD0008093E003ADCFE8EDF0E080818C7F8083F0
:100AE0001092E20008951092DA001092E100089549
:100AF0001F920F920FB60F9211240BB60F922F93E5
:100B00003F934F935F936F937F938F939F93AF9395
:100B1000BF93EF93FF938091E10082FF0AC0809121
:100B2000E20082FF06C08091E1008B7F8093E100AC
:100B300004D28091DA0080FF1DC08091D80080FF30
:100B400019C08091DA008E7F8093DA008091D900FD
:100B500080FF0CC084E189BD86E189BD09B400FE37
:100B6000FDCF81E08093E1033ADB04C019BC109211
:100B7000E10336DB8091E10080FF18C08091E20044
:100B800080FF14C08091E2008E7F8093E20080910C
:100B9000E20080618093E2008091D80080628093BF
:100BA000D80019BC85E08093E103C7D18091E100B2
:100BB00084FF2FC08091E20084FF2BC084E189BDB7
:100BC00086E189BD09B400FEFDCF8091D8008F7DFC
:100BD0008093D8008091E1008F7E8093E100809126
:100BE000E2008F7E8093E2008091E200816080933A
:100BF000E2008091DD03882311F084E007C080913A
:100C0000E30087FD02C081E001C083E08093E1033F
:100C100094D18091E10083FF22C08091E20083FFA4
:100C20001EC08091E100877F8093E10082E0809385
:100C3000E1031092DD038091E1008E7F8093E1005B
:100C40008091E2008E7F8093E2008091E2008061DB
:100C50008093E20042E360E080E064DE6ED1FF91C9
:100C6000EF91BF91AF919F918F917F916F915F9124
:100C70004F913F912F910F900BBE0F900FBE0F9091
:100C80001F9018951F93CF93DF93CDB7DEB7AA9728
:100C90000FB6F894DEBF0FBECDBFE2EEF3E088E002
:100CA0008E0F9091F10091938E13FBCFA2DA809179
:100CB000E80083FF2AC18091E2039091E30395301D
:100CC00009F483C030F49130A9F168F0933091F1C8
:100CD0001CC1983009F4EEC0993009F4FAC096307E
:100CE00009F013C194C0803821F0823809F00DC199
:100CF00008C08091DE039091DF03992389F0826020
:100D00000FC08091E6038F70873008F0FEC080939B
:100D1000E9008091EB0085FB882780F91092E900BB
:100D20009091E800977F9093E8008093F1001092F3
:100D3000F100CBC0282F2D7F09F0E7C0882319F0E0
:100D4000823061F0E2C08091E403813009F0DDC0BF
:100D5000933009F080E08093DF032EC08091E4039C
:100D600081112AC08091E6038F702FEF280F263063
:100D700008F0CBC08093E9002091EB0020FF1CC05D
:100D8000933021F48091EB00806214C09091EB00CD
:100D900090619093EB0021E030E0A90102C0440F84
:100DA000551F8A95E2F74093EA001092EA0080917D
:100DB000EB0088608093EB001092E9008091E800DE
:100DC000877F8093E800E3DDA0C081119EC0109171
:100DD000E4031F778091E3008078812B8093E30008
:100DE0008091E800877F8093E800D1DD8091E80062
:100DF00080FFFCCF8091E30080688093E3001111B5
:100E000002C082E001C083E08093E1037EC080588D
:100E1000823008F07AC08091E4039091E5038C3D24
:100E200053E0950771F583E08A838AE289834FB79F
:100E3000F894DE01139620E03EE051E2E32FF0E06B
:100E400050935700E49120FF03C0E295EF703F5F9D
:100E5000EF708E2F90E0EA3010F0C79601C0C09678
:100E60008D939D932F5F243149F74FBF8091E80008
:100E7000877F8093E8006AE270E0CE01019691DC02
:100E800013C06091E6037091E703AE014F5F5F4FBF
:100E9000B1DBBC01892BC9F19091E800977F909359
:100EA000E80089819A81DEDC8091E8008B7780936D
:100EB000E8002BC0803849F58091E800877F809357
:100EC000E8008091DD038093F1008091E8008E7747
:100ED00078CF81111AC09091E4039230B0F48091E0
:100EE000E800877F8093E8009093DD0350DD8091D8
:100EF000DD03811106C08091E30087FD02C081E01F
:100F000001C084E08093E1036CD98091E80083FF05
:100F10000AC08091E800877F8093E8008091EB0011
:100F200080628093EB00AA960FB6F894DEBF0FBEE6
:100F3000CDBFDF91CF911F9108950895CF938091F8
:100F4000E103882399F0C091E900CF709091EC0003
:100F5000892F817090FD80E8C82B1092E900809164
:100F6000E80083FD8FDECF70C093E900CF91089534
:040F7000F894FFCF23
:100F74000000FF8019000000808032000000FF8024
:100F84001900000080803200000080FF190000007A
:100F940080803200000080FF190000008080320051
:100FA400000080FF19000000808032002000808053
:100FB4000A0000008080C8000000FF8019000000C3
:100FC400808032000000FF80190000008080320021
:100FD400000080FF19000000808032000000FF80C4
:100FE4001900000080803200040080800A000000A4
:100FF40080803200000080001900000080803200F0
:10100400000080001900000080803200040080800D
:101014000A00000080804B000000800019000000DE
:1010240080803200040080800A0000008080C800B4
:10103400040080800A000000808032000800808064
:101044000A00000080803200040080800A00000052
:1010540080802C01200080800A00000080809001A4
:10106400040080800A000000808032000400808038
:101074000A00000080803200000000801900000097
:1010840080803200040080800A00000080803200EA
:10109400000080FF1900000080803200040080807E
:1010A4000A00000080803200040080800A000000F2
:1010B40080803200000080002C01020080800A0041
:1010C40000008080320000008000C800040080809E
:1010D4000A00000080803200040080800A000000C2
:1010E40080803200040080800A000000808032008A
:1010F400040080800A0000008080320004008080A8
:101104000A00000080803200020080800A00000093
:1011140080803200040080800A0000008080F40196
:10112400000080802C01000280800A000000000082
:101134002C01040080800A00000080804B00040021
:1011440080800A00000080805802020080800A002B
:1011540000008080C800040080800A0000008080B5
:101164004B00020080800A00000080802C010000F7
:1011740080FF1900000080804B00040080800A007A
:10118400000080802C01040080800A000000808020
:10119400C800040080800A0000008080C8000002AB
:1011A40080800A00000080804B00020080800A00DA
:1011B4000000FF8064000000FF804B000200FF80FD
:1011C4000A00000080804B00080080800A000000B4
:1011D40080804B00040080800A00000080802C0185
:1011E4000000AA801900000080804B000400808069
:1011F4000A00000080804B00040080800A00000088
:1012040080802C01000080804B00300080800A0028
:10121400000080804B00300080800A000000808045
:101224004B00040080800A00000080804B00040012
:0412340080800A00AC
:00000001FF
