:10000000B8C00000D3C00000D1C00000CFC00000C5
:10001000CDC00000CBC00000C9C00000C7C00000B8
:10002000C5C00000C3C00000ACC40000BFC00000D9
:10003000BDC00000BBC00000B9C00000B7C00000D8
:10004000B5C00000B3C00000B1C00000AFC00000E8
:10005000ADC00000ABC00000A9C00000A7C00000F8
:10006000A5C00000A3C00000A1C000009FC0000008
:100070009DC000009BC0000099C0000097C0000018
:1000800095C0000093C0000091C000008FC0000028
:100090008DC000008BC00000240350004F004B00B7
:1000A0004B0045004E00200043004F004E0054001E
:1000B00052004F004C004C004500520000001C0351
:1000C00048004F0052004900200043004F002E001E
:1000D0002C004C00540044002E00000004030904CE
:1000E0000902290001010080FA090400000203004E
:1000F00000000921110100012256000705020340FA
:100100000005070581034000051201000200000000
:10011000400D0F920000010102000105010905A137
:1001200001150025013500450175019510050919D6
:10013000012910810205012507463B01750495013F
:1001400065140939814265009501810126FF004649
:10015000FF0009300931093209357508950481021B
:100160000600FF0920950181020A212695089102C7
:10017000C00011241FBECFEFD0E2DEBFCDBF13E021
:10018000A0E0B1E0E2E1FEE000E00BBF02C00790BA
:100190000D92A430B107D9F723E0A4E0B3E001C089
:1001A0001D92A033B207E1F76ED131C629CF84B7D3
:1001B000877F84BF0FB6F894A8958091600088610E
:1001C00080936000109260000FBE90E080E80FB650
:1001D000F89480936100909361000FBEB7C30895B7
:1001E000089542E360EC82E0E5D242E361EC81E015
:1001F000E1C208951F93CF93DF93DC0180910E033A
:1002000090910F0316E0189FE001199FD00D112463
:10021000C60FD71F2D913C91119788819981822B10
:10022000932B11969C938E9320910E0330910F0384
:10023000129FF001139FF00D1124E60FF71F82812A
:1002400013968C931397838114968C938481958154
:100250009093190380931803C90101968417950799
:100260002CF490930F0380930E030DC010920F0394
:1002700010920E03809110039091110301969093B8
:10028000110380931003DF91CF911F910895CF93B5
:10029000DF93DC0198E0FD01892F11928A95E9F73F
:1002A00080E813968C93139714968C931497159655
:1002B0008C93159716968C93169712969C9312977B
:1002C0008091180390911903181619068CF488E090
:1002D000EBE1F3E001900D928A95E1F7809118032C
:1002E000909119030197909319038093180380C08C
:1002F00080911003909111030497C1F5809104033C
:100300009091050301969093050380930403209137
:100310000803309109032F5F3F4F2630310529F044
:1003200030930903209308030EC010920903109222
:10033000080320910603309107032F5F3F4F30934E
:10034000070320930603209106033091070325300D
:10035000310521F410920703109206034E9734F4EE
:1003600082E090E09093110380931003ED0180915F
:10037000100390911103009729F448E050E064EDD8
:1003800072E02CC08130910529F446E050E06CEC1D
:1003900071E024C08230910529F44EE050E068E716
:1003A00071E01CC00397E1F4809108039091090368
:1003B000059781F48091060390910703049729F42F
:1003C0004CE050E060E071E009C046E050E068E4D5
:1003D00071E004C042E050E06CE671E0CE010ADF5B
:1003E00088E0FE01ABE1B3E001900D928A95E1F760
:1003F000DF91CF910895CF93DF93CDB7DEB72897E4
:100400000FB6F894DEBF0FBECDBF809127038430B6
:1004100089F582E08093E9008091E80082FF12C0B4
:100420008091E80085FF09C040E050E067E070E09F
:10043000CE010196B8D08111F7CF8091E8008B777B
:100440008093E80081E08093E9008091E80080FFDC
:1004500011C0CE0101961BDF40E050E068E070E083
:10046000CE01019656D08111F7CF8091E8008E77AA
:100470008093E80028960FB6F894DEBF0FBECDBF7C
:10048000DF91CF91089593DE7894B5DFA6D4FDCFA8
:10049000292F332723303105E1F058F4213031057D
:1004A00099F02230310569F589E290E020EE30E0E4
:1004B0002CC02132310501F12232310511F586E5DA
:1004C00090E02BE131E021C082E190E029E031E0D1
:1004D0001CC099278130910549F028F0029789F4D2
:1004E000E8E9F0E005C0ECEDF0E002C0EEEBF0E092
:1004F000849190E09F0109C089E090E022EF30E014
:1005000004C080E090E020E030E0FA0131832083F5
:100510000895CF92DF92EF92FF920F931F93CF93A4
:10052000DF93EC018B017A0199D1811133C0E11481
:10053000F10439F0F70180819181081B190BC80F74
:10054000D91FC12CD12C0115110519F18091E8009A
:1005500085FD16C08091E8008E778093E8003DD439
:10056000E114F10449F0F70180819181C80ED91E90
:10057000D182C08285E00EC071D1882321F30AC0E8
:1005800089918093F10001501109FFEFCF1ADF0A22
:10059000DACF80E0DF91CF911F910F91FF90EF9024
:1005A000DF90CF900895CF92DF92EF92FF920F935A
:1005B0001F93CF93DF93EC018B017A014FD181110F
:1005C00033C0E114F10439F0F70180819181081BF7
:1005D000190BC80FD91FC12CD12C0115110519F108
:1005E0008091E80085FD16C08091E8008B778093AC
:1005F000E800F3D3E114F10449F0F701808191811F
:10060000C80ED91ED182C08285E00EC027D18823B2
:1006100021F30AC08091F100899301501109FFEF85
:10062000CF1ADF0ADACF80E0DF91CF911F910F91CF
:10063000FF90EF90DF90CF90089520912E0330919E
:100640002F032617370748F06115710539F42091FB
:10065000E8002E772093E80001C0B901FC0120E0FA
:100660006115710571F1809127038823E9F18530C7
:10067000E9F18091E80083FD3BC08091E80082FDB4
:100680002DC08091E80080FFEBCF8091F200909127
:10069000F3006115710551F08034910538F4219112
:1006A0002093F100615071090196F3CF21E080346D
:1006B000910509F020E08091E8008E778093E800B2
:1006C000CFCF2111D0CF0AC080912703882361F0BA
:1006D000853061F08091E80083FD0AC08091E800D8
:1006E00082FFF2CF80E0089582E0089583E00895CC
:1006F00081E0089520912E0330912F0326173707AC
:1007000048F06115710539F42091E8002E772093A7
:10071000E80001C0B901FC0120E06115710589F113
:1007200080912703882309F43FC0853009F43EC037
:100730008091E80083FD3CC08091E80082FD2EC0DE
:100740008091E80080FFE9CF8091F2009091F30062
:100750006115710559F08034910540F4249120937E
:10076000F1003196615071090196F2CF21E0803499
:10077000910509F020E08091E8008E778093E800F1
:10078000CCCF2111CDCF0AC080912703882361F0FF
:10079000853061F08091E80083FD0AC08091E80017
:1007A00082FFF2CF80E0089582E0089583E008950B
:1007B00081E00895982F973068F59093E900981795
:1007C00039F07091EC002091ED005091F00003C0E1
:1007D000242F762F50E021FD02C09F5FECCF309197
:1007E000EB003E7F3093EB003091ED003D7F309386
:1007F000ED003091EB0031603093EB007093EC0032
:100800002093ED005093F0002091EE0027FDE5CFFE
:1008100080E008958F708093E90081E008958091D1
:10082000280387FF11C08091E80082FD05C08091F8
:1008300027038111F8CF11C08091E8008B770BC09E
:1008400080912703882349F08091E80080FFF8CF4A
:100850008091E8008E778093E80008952091E4006D
:100860003091E50095E64091EC00842F817040FFC7
:1008700023C08091E80080FD1DC08091270388235C
:1008800099F0853099F08091EB0085FD11C0409181
:10089000E4005091E5002417350729F3915011F039
:1008A0009A01E1CF84E0089582E0089583E00895FD
:1008B00081E0089580E008954091E80042FFDDCF97
:1008C00008950F931F93CF93DF934ED055D0C8ED6B
:1008D000D0E088818F778883888180688883888149
:1008E0008F7D8883E7EDF0E080818068808319BC8C
:1008F00010922703109223031092250310922403D1
:1009000000EE10E0F80180818B7F80838881816018
:10091000888342E360E080E04DDFE1EEF0E080813B
:100920008E7F8083E2EEF0E0808181608083808131
:1009300088608083F80180818E7F808388818061D8
:100940008883DF91CF911F910F910895E8EDF0E03A
:1009500080818F7E8083E7EDF0E0808181608083FD
:1009600081E080932603ADCFE8EDF0E080818C7FBD
:1009700080831092E20008951092DA001092E10054
:1009800008951F920F920FB60F9211240BB60F927B
:100990002F933F934F935F936F937F938F939F9387
:1009A000AF93BF93EF93FF938091E10082FF0AC062
:1009B0008091E20082FF06C08091E1008B7F8093EE
:1009C000E1000AD28091DA0080FF1DC08091D8003A
:1009D00080FF19C08091DA008E7F8093DA008091C9
:1009E000D90080FF0CC084E189BD86E189BD09B4CE
:1009F00000FEFDCF81E080932703F1DB04C019BC2A
:100A000010922703EDDB8091E10080FF18C08091F8
:100A1000E20080FF14C08091E2008E7F8093E200AC
:100A20008091E20080618093E2008091D800806232
:100A30008093D80019BC85E080932703CDD18091A5
:100A4000E10084FF2FC08091E20084FF2BC084E18D
:100A500089BD86E189BD09B400FEFDCF8091D80033
:100A60008F7D8093D8008091E1008F7E8093E1009C
:100A70008091E2008F7E8093E2008091E2008160AD
:100A80008093E20080912303882311F084E007C063
:100A90008091E30087FD02C081E001C083E0809384
:100AA00027039AD18091E10083FF22C08091E20068
:100AB00083FF1EC08091E100877F8093E10082E088
:100AC00080932703109223038091E1008E7F80930F
:100AD000E1008091E2008E7F8093E2008091E2004D
:100AE00080618093E20042E360E080E063DE74D1E5
:100AF000FF91EF91BF91AF919F918F917F916F91F6
:100B00005F914F913F912F910F900BBE0F900FBEB1
:100B10000F901F9018951F93CF93DF93CDB7DEB73B
:100B2000AA970FB6F894DEBF0FBECDBFE8E2F3E0A0
:100B30008091F100819323E0E033F207C9F759DB9C
:100B40008091E80083FF30C18091280390912903B0
:100B5000953009F483C030F49130A9F168F09330F6
:100B600091F122C1983009F4EFC0993009F4FBC02B
:100B7000963009F019C194C0803821F0823809F00C
:100B800013C108C08091240390912503992389F013
:100B900082600FC080912C038F70873008F004C1F1
:100BA0008093E9008091EB0085FB882780F9109203
:100BB000E9009091E800977F9093E8008093F1001E
:100BC0001092F100CCC0282F2D7F09F0EDC08823B2
:100BD00019F0823061F0E8C080912A03813009F079
:100BE000E3C0933009F080E0809325032EC080910C
:100BF0002A0381112AC080912C038F702FEF280FB8
:100C0000263008F0D1C08093E9002091EB0020FF4E
:100C10001CC0933021F48091EB00806214C090914D
:100C2000EB0090619093EB0021E030E0A90102C05D
:100C3000440F551F8A95E2F74093EA001092EA00AC
:100C40008091EB0088608093EB001092E900809126
:100C5000E800877F8093E800E2DDA6C08111A4C090
:100C600010912A031F778091E3008078812B809375
:100C7000E3008091E800877F8093E800D0DD8091D9
:100C8000E80080FFFCCF8091E30080688093E30060
:100C9000111102C082E001C083E08093270384C069
:100CA0008058823008F080C080912A0390912B03F5
:100CB0008C3D53E0950771F583E08A838AE289834E
:100CC0004FB7F894DE01139620E03EE051E2E32FA7
:100CD000F0E050935700E49120FF03C0E295EF70DD
:100CE0003F5FEF708E2F90E0EA3010F0C79601C0A2
:100CF000C0968D939D932F5F243149F74FBF80910C
:100D0000E800877F8093E8006AE270E0CE010196F8
:100D100094DC14C060912C0370912D03AE014F5FE1
:100D20005F4FB6DBBC01892B09F43EC09091E8000F
:100D3000977F9093E80089819A81DCDC8091E800BC
:100D40008B778093E80030C0803871F58091E8009F
:100D5000877F8093E800809123038093F100809146
:100D6000E8008E7777CF81111FC080912A03909180
:100D70002B0399270297C4F48091E800877F809322
:100D8000E80080912A038093230349DD80912303A7
:100D9000811106C08091E30087FD02C081E001C09F
:100DA00084E0809327031DDA8091E80083FF0AC066
:100DB0008091E800877F8093E8008091EB0080625B
:100DC0008093EB00AA960FB6F894DEBF0FBECDBF9E
:100DD000DF91CF911F9108950895CF9380912703BC
:100DE000882399F0C091E900CF709091EC00892F91
:100DF000817090FD80E8C82B1092E9008091E80096
:100E000083FD89DECF70C093E900CF910895F894F7
:020E1000FFCF12
:100E12000000FF8019000000808032000000FF8087
:100E22001900000080803200000080FF19000000DD
:100E320080803200000080FF1900000080803200B4
:100E4200000080FF190000008080320020008080B6
:100E52000A0000008080C8000000FF801900000026
:100E6200808032000000FF80190000008080320084
:100E7200000080FF19000000808032000000FF8027
:100E82001900000080803200040080800A00000007
:100E92008080320000008000190000008080320053
:100EA2000000800019000000808032000400808071
:100EB2000A00000080804B00000080001900000042
:100EC20080803200040080800A0000008080C80018
:100ED200040080800A0000008080320008008080C8
:100EE2000A00000080803200040080800A000000B6
:100EF20080802C01200080800A0000008080900108
:100F0200000080802C01000280800A0000000000A6
:100F12002C01040080800A00000080804B00040045
:100F220080800A00000080805802020080800A004F
:100F320000008080C800040080800A0000008080D9
:100F42004B00020080800A00000080802C0100001B
:100F520080FF1900000080804B00040080800A009E
:100F6200000080802C01040080800A000000808044
:100F7200C800040080800A0000008080C8000002CF
:100F820080800A00000080804B00020080800A00FE
:100F92000000FF8064000000FF804B000200FF8021
:100FA2000A00000080804B00080080800A000000D8
:100FB20080804B00040080800A00000080802C01A9
:100FC2000000AA801900000080804B00040080808D
:100FD2000A00000080804B00040080800A000000AC
:100FE20080802C01000080804B00300080800A004D
:100FF200000080804B00300080800A00000080806A
:101002004B00040080800A00000080804B00040036
:0410120080800A00D0
:00000001FF
